:100000000C942A000C9447000C9447000C94470071
:100010000C9447000C9447000C9447000C94470044
:100020000C9447000C9447000C9447000C94470034
:100030000C9447000C943C060C9447000C94470029
:100040000C9447000C9447000C9447000C94470014
:100050000C94470011241FBECFE5D8E0DEBFCDBF12
:1000600011E0A0E6B0E0ECEEF8E102C005900D92E0
:10007000AE37B107D9F711E0AEE7B1E001C01D928C
:10008000AD38B107E1F70E94AB020C94740C0C94EC
:100090000000DF93CF93CDB7DEB783E590E021E694
:1000A000FC01208385E490E021E6FC01208389E5C2
:1000B00090E0FC011082CF91DF910895DF93CF9300
:1000C00000D0CDB7DEB789836A838A81882F90E01C
:1000D00081309105D1F08230910569F10097C1F529
:1000E0001092810185E390E025E330E0F901208161
:1000F0002460FC01208385E390E025E330E0F901F2
:1001000020812860FC01208324C081E0809381014C
:1001100085E390E025E330E0F90120812460FC01D3
:10012000208385E390E025E330E0F9012081277FFB
:10013000FC0120830EC082E08093810185E390E082
:1001400025E330E0F90120812B7FFC01208301C0F1
:1001500000008981882F90E081309105D1F08230B4
:10016000910569F10097C9F51092820185E390E04D
:1001700025E330E0F90120812160FC01208385E343
:1001800090E025E330E0F90120812260FC0120832A
:1001900025C081E08093820185E390E025E330E093
:1001A000F90120812160FC01208385E390E025E3B3
:1001B00030E0F90120812D7FFC0120830FC082E017
:1001C0008093820185E390E025E330E0F90120810E
:1001D0002E7FFC012083000001C000000F900F90D3
:1001E000CF91DF910895DF93CF930F92CDB7DEB714
:1001F00089838981882F90E081309105D1F0823008
:10020000910569F10097C9F51092810185E390E0AD
:1002100025E330E0F90120812460FC01208385E39F
:1002200090E025E330E0F90120812860FC01208383
:1002300025C081E08093810185E390E025E330E0F3
:10024000F90120812460FC01208385E390E025E30F
:1002500030E0F9012081277FFC0120830FC082E07C
:100260008093810185E390E025E330E0F90120816E
:100270002B7FFC012083000001C000000F90CF9174
:10028000DF910895DF93CF930F92CDB7DEB78983C7
:100290008981882F90E081309105D1F082309105DD
:1002A00069F10097C9F51092820185E390E025E39A
:1002B00030E0F90120812160FC01208385E390E09A
:1002C00025E330E0F90120812260FC01208325C074
:1002D00081E08093820185E390E025E330E0F9013D
:1002E00020812160FC01208385E390E025E330E05C
:1002F000F90120812D7FFC0120830FC082E08093D3
:10030000820185E390E025E330E0F90120812E7F32
:10031000FC012083000001C000000F90CF91DF910D
:100320000895DF93CF9300D00F92CDB7DEB78A83C5
:100330006B8380E589839A818981981710F489817C
:100340008A839B818981981710F489818B8380919E
:100350008201882F90E08130910559F0823091051B
:1003600091F00097B1F48CE590E02A81FC012083A4
:1003700011C08CE590E039E02A81F32FF21B2F2F7A
:10038000FC01208307C08CE590E02FEFFC01208367
:1003900001C0000080918101882F90E0813091059B
:1003A00059F08230910591F00097B9F483E490E020
:1003B0002B81FC01208312C083E490E039E02B8183
:1003C000F32FF21B2F2FFC01208308C083E490E061
:1003D0002FEFFC012083000001C000000F900F9060
:1003E0000F90CF91DF910895DF93CF9300D0CDB7D9
:1003F000DEB789836A8380E00E94420180E00E9428
:10040000F30089816A810E9491010F900F90CF9132
:10041000DF910895DF93CF9300D0CDB7DEB7898306
:100420006A8381E00E94420181E00E94F300898199
:100430006A810E9491010F900F90CF91DF910895F2
:10044000DF93CF930F92CDB7DEB7898382E00E940E
:10045000420180E00E94F30082E069810E949101E4
:100460000F90CF91DF910895DF93CF930F92CDB787
:10047000DEB7898381E00E94420182E00E94F3009E
:1004800082E069810E9491010F90CF91DF910895E0
:10049000DF93CF930F92CDB7DEB7898380E00E94C0
:1004A000420182E00E94F300898162E00E94910192
:1004B0000F90CF91DF910895DF93CF930F92CDB737
:1004C000DEB7898382E00E94420181E00E94F3004E
:1004D000898162E00E9491010F90CF91DF91089590
:1004E000DF93CF93CDB7DEB782E00E94420182E076
:1004F0000E94F30082E062E00E949101CF91DF91BF
:100500000895DF93CF93CDB7DEB78AE390E0FC0187
:10051000108284E390E02FE0FC01208381E390E0EF
:1005200020EBFC01208387E390E028E0FC0120839E
:100530008BE390E0FC01108288E390E0FC011082E4
:1005400085E390E0FC01108282E390E0FC011082E0
:10055000CF91DF910895DF93CF93CDB7DEB7EC97BE
:100560000FB6F894DEBF0FBECDBF80E28D83198237
:100570001A82CE01879620E630E046E1F90100803C
:100580002F5F3F4FFC010082019641504423B1F799
:100590001A8A198A89899A89988B8F878F85988971
:1005A0009E878D87CE01439660E070E044E150E085
:1005B0000E945C0C80EA8E8384E18F8384E690E065
:1005C0009987888780E991E09B878A8780E10E94EC
:1005D000FD040E9481020E9449000E946F047894E9
:1005E000CE0187960E943A0501C000000E941106C4
:1005F0008823D9F30E94EA058C878C85823469F0C0
:100600008C85883551F08C85893539F08C8583351A
:1006100021F08C85853409F053C18981882F90E0C1
:100620009E012D5E3F4F820F931FFC0110821982A5
:100630008A81882321F48A818F5F8A833FC18A81DE
:10064000813051F4CE0143960E943E0C9E878D87E7
:100650008A818F5F8A8332C18A81823051F4CE01D0
:1006600043960E943E0C988B8F878A818F5F8A8386
:1006700025C18A81833051F4CE0143960E943E0CFD
:100680009A8B898B8A818F5F8A8318C18A81843093
:1006900009F014C129893A898F81882F90E0821747
:1006A000930708F008C18D859E85803B910548F130
:1006B0008D859E858F5A9040CC01A0E0B0E0BC01B2
:1006C000CD010E947E09DC01CB01BC01CD012DECE6
:1006D0003CEC4CE250E40E944E08DC01CB01BC0132
:1006E000CD010E947A06DC01CB019E878D870E9496
:1006F000E1049C018D859E85820F931F0E948F04CB
:1007000033C08D859E858139910570F58D859E85D7
:100710002FEA30E0A901481B590BCA01CC01A0E027
:10072000B0E0BC01CD010E947E09DC01CB01BC011F
:10073000CD012DEC3CEC4CE250E40E944E08DC0173
:10074000CB01BC01CD010E947A06DC01CB019E8762
:100750008D870E94E1049C018D859E85F901E81B2F
:10076000F90BCF010E948F048F85988988389105F5
:1007700048F18F85988987589040CC01A0E0B0E07F
:10078000BC01CD010E947E09DC01CB01BC01CD0181
:1007900020E030E040E250E40E944E08DC01CB0152
:1007A000BC01CD010E947A06DC01CB01988B8F87BA
:1007B0000E94EF049C018F859889820F931F0E94ED
:1007C000B80433C08F8598898936910570F58F8577
:1007D000988927E830E0A901481B590BCA01CC01D0
:1007E000A0E0B0E0BC01CD010E947E09DC01CB019C
:1007F000BC01CD0120E030E040E250E40E944E0810
:10080000DC01CB01BC01CD010E947A06DC01CB01E9
:10081000988B8F870E94EF049C018F859889F9013E
:10082000E81BF90BCF010E94B80429893A89888511
:1008300099852817390760F585E98B838B818C832F
:100840000E94E10499236CF00E94E1042AE030E068
:10085000B9010E94E00B9B01C9019C81890F8C8327
:100860000EC00E94E1042AE030E0B9010E94E00BD2
:100870009B01C9019B81F92FF81B8F2F8B8380E08F
:1008800060E00E945E008C816B810E94910115C026
:1008900029893A898A859B858217930748F481E0E4
:1008A00061E00E945E0080EA60EA0E94910105C05A
:1008B0000E94700202C00E9470021A82000096CE4E
:1008C0008981882F90E09E012D5E3F4F820F931FFC
:1008D0002C85FC01208389818F5F898387CEDF93FC
:1008E000CF93CDB7DEB780E090E00E948F0480E028
:1008F00090E00E94B80486E490E020E23EE4FC012F
:10090000318320838FE490E020EAFC0120838EE491
:1009100090E022E1FC012083CF91DF910895DF93E5
:10092000CF9300D0CDB7DEB79A83898389819A812E
:100930002CEF8D37920724F48CE79CEF9A83898300
:1009400089819A81E3E084389E0724F084E893E06B
:100950009A83898388E490E029813A812B503A4F29
:10096000FC01318320830F900F90CF91DF91089588
:10097000DF93CF9300D0CDB7DEB79A838983898187
:100980009A812DEF8534920724F484E49DEF9A83B5
:10099000898389819A81E3E084389E0724F084E882
:1009A00093E09A8389838AE490E029813A812858E8
:1009B0003A4FFC01318320830F900F90CF91DF914C
:1009C0000895DF93CF93CDB7DEB788E490E0FC01C4
:1009D00080819181855F9540CF91DF910895DF936C
:1009E000CF93CDB7DEB78AE490E0FC01808191819E
:1009F00088579540CF91DF910895DF93CF930F9261
:100A0000CDB7DEB7898380E490E0FC01108289E2F3
:100A100090E02981FC0120838BE290E022E0FC0140
:100A2000208380E490E026E8FC0120838AE290E0C5
:100A300028E9FC01208378940F90CF91DF910895ED
:100A4000DF93CF930F92CDB7DEB7898300008BE29F
:100A500090E0FC018081882F90E080729070009778
:100A6000B1F38CE290E02981FC0120830F90CF91BB
:100A7000DF910895DF93CF9300D000D000D0CDB7A1
:100A8000DEB79E838D838D819E810E94630C9C8343
:100A90008B831A8219820FC089819A812D813E81B0
:100AA000820F931FFC0180810E94200589819A8119
:100AB00001969A83898329813A818B819C812817A9
:100AC000390754F326960FB6F894DEBF0FBECDBF9C
:100AD000CF91DF910895DF93CF930F92CDB7DEB71B
:100AE000898389818A3018F08981895C02C0898173
:100AF000805D0F90CF91DF910895DF93CF930F9298
:100B0000CDB7DEB789838981803330F089818A331C
:100B100018F48981805313C08981813430F0898130
:100B2000873418F4898187530AC08981813630F06F
:100B30008981873618F48981875501C08FEF0F901E
:100B4000CF91DF910895DF93CF930F92CDB7DEB7AA
:100B50008983898182958F700E946B050E94200590
:100B600089818F700E946B050E9420050F90CF91A4
:100B7000DF910895DF93CF9300D000D0CDB7DEB7DB
:100B80009C838B838B8189838B819C81892F99277F
:100B90008A838A8182958F700E946B050E9420054E
:100BA0008A818F700E946B050E9420058981829541
:100BB0008F700E946B050E94200589818F700E94B2
:100BC0006B050E9420050F900F900F900F90CF9112
:100BD000DF910895DF93CF93CDB7DEB78091800189
:100BE000882339F4000090917E0180917F0198174D
:100BF000D1F31092800180917E018F5F80937E01FE
:100C000080917E018A3010F010927E0180917E01E9
:100C1000882F90E08D579E4FFC018081CF91DF910E
:100C20000895DF93CF93CDB7DEB7809180018823FD
:100C300011F08AE01EC090917F0180917E0189179A
:100C400040F490917F0180917E01292F281B822FF3
:100C500010C090917F0180917E01981748F4909187
:100C60007F0180917E01292F281B822F865F01C082
:100C700080E0CF91DF9108951F920F920FB60F92EF
:100C800011242F933F938F939F93EF93FF93DF93C1
:100C9000CF93CDB7DEB780917F018F5F80937F01C7
:100CA00080917F018A3010F010927F0190917E0137
:100CB00080917F01981729F4809180018F5F809344
:100CC000800180917F01882F90E02CE230E0F901D3
:100CD00020818D579E4FFC012083CF91DF91FF91A2
:100CE000EF919F918F913F912F910F900FBE0F9099
:100CF0001F901895EF92FF920F931F937B018C0129
:100D000020E030E040E05FE40E94FC0887FD11C075
:100D1000C801B70120E030E040E05FE40E941D0818
:100D20000E942C099B01AC012050304040405048AB
:100D300006C0C801B7010E942C099B01AC01B90192
:100D4000CA011F910F91FF90EF900895A0E0B0E0CD
:100D5000ECEAF6E00C940B0CFC01EA018081823095
:100D600008F438C1DB019C91923008F430C1843022
:100D700059F4943009F02EC1918111968C911197FC
:100D8000981709F021C126C1943009F420C192308E
:100D9000B1F4823009F01EC1CA01AF0128E0DA01C6
:100DA0000D90AD01DC010D92CD012150C1F7DB01A9
:100DB00011968C9111979181892389830AC1823080
:100DC00009F405C1C280D380DB0112966D907C903E
:100DD000139724813581468157811496ED90FD90BB
:100DE0000D911C911797C601861997095C0197FF11
:100DF00004C0AA24BB24A81AB90AB0E2AB16B104F5
:100E00000CF061C0181619066CF5370148010A2C60
:100E100004C096948794779467940A94D2F781E0FB
:100E200090E0A0E0B0E00A2C04C0880F991FAA1F30
:100E3000BB1F0A94D2F70197A109B1098E219F2106
:100E4000A023B123EE24FF248701E3940097A1059A
:100E5000B10519F4EE24FF248701E628F7280829B4
:100E600019293CC00097D1F1CA0CDB1C39014A0199
:100E70000A2C04C096948794779467940A94D2F7C6
:100E800081E090E0A0E0B0E00A2C04C0880F991F38
:100E9000AA1FBB1F0A94D2F70197A109B1098223A7
:100EA0009323A423B52321E030E040E050E00097F5
:100EB000A105B10519F420E030E0A9012629372960
:100EC000482959290BC06C147D0424F4EE24FF2416
:100ED000870104C0630120E030E0A9018181FB01AA
:100EE0009181891709F445C0882349F0D801C701C9
:100EF000821B930BA40BB50B9C01AD0104C02E19F2
:100F00003F09400B510B57FD04C01982DB82CA8296
:100F10000BC081E08983DB82CA8250954095309571
:100F200021953F4F4F4F5F4F2C833D834E835F830F
:100F30000DC0880F991FAA1FBB1F8C839D83AE8392
:100F4000BF838A819B8101979B838A838C819D814A
:100F5000AE81BF819C01AD012150304040405040E6
:100F60002F3FEFEF3E07EFEF4E07EFE35E0708F38B
:100F70000BC08983DB82CA822E0D3F1D401F511F8B
:100F80002C833D834E835F8383E088832C813D8166
:100F90004E815F8157FF1DC0DA01C90181709070D9
:100FA000A070B0705695479537952795822B932B57
:100FB000A42BB52B8C839D83AE83BF838A819B81B9
:100FC00001969B838A8305C0E6E7F0E003C0FB013E
:100FD00001C0FE01CF01CDB7DEB7EEE00C94270CC7
:100FE000A0E2B0E0E6EFF7E00C94130C69837A839B
:100FF0008B839C832D833E834F83588789E0E82E23
:10100000F12CEC0EFD1ECE010196B7010E941E0BC5
:101010008E010F5E1F4FCE010596B8010E941E0B78
:10102000C701B801AE01475E5F4F0E94A6060E944D
:10103000500AA096E6E00C942F0CA0E2B0E0E3E2A8
:10104000F8E00C94130C69837A838B839C832D8343
:101050003E834F8358878E01075F1F4FCE01019655
:10106000B8010E941E0B91E1E92EF12CEC0EFD1E41
:10107000CE010596B7010E941E0B8A8991E089274F
:101080008A8BC801B701AE01475E5F4F0E94A6067A
:101090000E94500AA096E6E00C942F0CA8E1B0E064
:1010A000E4E5F8E00C940F0C69837A838B839C83CE
:1010B0002D833E834F8358878E01075F1F4FCE01DC
:1010C0000196B8010E941E0B81E1E82EF12CEC0E76
:1010D000FD1ECE010596B7010E941E0B9985923028
:1010E00008F483C08989823008F47BC02A853A8954
:1010F00023272A87943011F0923021F4981709F0B1
:101100006CC071C0843039F41D861E861F86188A13
:101110001C861B866AC0823019F484E0898765C00A
:101120008B859C852B893C89821B930B9C878B87A5
:101130002D853E854F855889ED88FE880F89188D4D
:101140002E153F054007510738F4220F331F441F67
:10115000551F01979C878B876FE170E0A12CB12C04
:10116000C12CA0E4DA2E80E090E0DC012E153F05D2
:101170004007510740F08A299B29AC29BD292E1927
:101180003F09400B510BD694C794B794A794220FF4
:10119000331F441F551F6150704041F76FE7E62E23
:1011A000F12C012D112DE822F9220A231B2360E4E2
:1011B000E616F1040105110561F487FD0AC0211549
:1011C00031054105510529F0805C9F4FAF4FBF4F5E
:1011D00080788D879E87AF87B88B8E01075F1F4F02
:1011E00004C0870102C006E710E0C8010E94500A4F
:1011F0006896EAE00C942B0CA8E1B0E0E2E0F9E09C
:101200000C94130C69837A838B839C832D833E8398
:101210004F8358878E01075F1F4FCE010196B8019B
:101220000E941E0B81E1E82EF12CEC0EFD1ECE017A
:101230000596B7010E941E0B8985823040F089898E
:10124000823028F0C801B7010E94870B01C08FEFE0
:101250006896E6E00C942F0CACE0B0E0E2E3F9E035
:101260000C94170C69837A838B839C83CE0101963F
:10127000BE016B5F7F4F0E941E0B8D81823081F11A
:10128000823070F1843021F48E81882369F10AC0A4
:101290002F81388537FD24C06E812F3131053CF018
:1012A000662311F120E030E040E050E821C08EE1FB
:1012B00090E0821B930B29853A854B855C8504C0A1
:1012C00056954795379527958A95D2F7662381F0ED
:1012D00050954095309521953F4F4F4F5F4F08C037
:1012E00020E030E0A90104C02FEF3FEF4FEF5FE7B0
:1012F000B901CA012C96E2E00C94330CA8E0B0E0EE
:10130000E4E8F9E00C94110C7B018C011A82611560
:1013100071058105910519F482E089835FC083E03E
:1013200089838EE1C82ED12CDC82CB82ED82FE82B5
:101330000F831887C801B7010E94F609FC01319795
:10134000F7FF3AC0AA27BB27AE1BBF0B21E030E056
:1013500040E050E00A2E04C0220F331F441F551FE7
:101360000A94D2F721503040404050402E213F2176
:101370004023512361E070E080E090E021153105C9
:101380004105510519F460E070E0CB0104C01695E9
:101390000795F794E794AA95D2F7E62AF72A082B3F
:1013A000192BED82FE820F8318878EE190E08E1B51
:1013B0009F0B9C838B8312C0309781F00E2E04C04C
:1013C000EE0CFF1C001F111F0A94D2F7ED82FE8263
:1013D0000F831887CE1ADF0ADC82CB82CE010196FA
:1013E0000E94500A2896E8E00C942D0CAF92BF9210
:1013F000CF92DF92EF92FF920F931F937B018C01AC
:1014000080E0E81680E0F80681E0080780E0180731
:1014100058F4EFEFEE16F1040105110509F090F410
:1014200080E090E0DC0117C0F0E0EF16F0E0FF068E
:10143000F0E00F07F1E01F0750F480E190E0A0E03A
:10144000B0E009C088E090E0A0E0B0E004C088E12E
:1014500090E0A0E0B0E020E230E040E050E0281B67
:10146000390B4A0B5B0B5701680104C0D694C79433
:10147000B794A7948A95D2F7D601C50182589F4F99
:10148000FC018081281B310941095109C9011F91C3
:101490000F91FF90EF90DF90CF90BF90AF900895A5
:1014A000EF92FF920F931F93CF93DF93FC01248160
:1014B00035814681578161818081823020F440618D
:1014C000EFEFF0E0A3C0843009F49BC0823009F450
:1014D00092C0211531054105510509F48FC00280E4
:1014E000F381E02D8FEFE238F8070CF05AC0C2E824
:1014F000DFEFCE1BDF0BCA31D1056CF579018A0114
:101500000C2E04C016950795F794E7940A94D2F729
:1015100081E090E0A0E0B0E00C2E04C0880F991F9D
:10152000AA1FBB1F0A94D2F70197A109B109822310
:101530009323A423B52321E030E040E050E000975E
:10154000A105B10519F420E030E0A9012E293F29B9
:10155000402B512B03C020E030E0A901DA01C90182
:101560008F779070A070B07080349105A105B1059F
:1015700039F427FF09C0205C3F4F4F4F5F4F04C035
:10158000215C3F4F4F4F5F4FE1E0F0E0203080E0C3
:10159000380780E0480780E4580728F5E0E0F0E0ED
:1015A00022C0E038F1056CF5E158FF4FDA01C901BE
:1015B0008F779070A070B07080349105A105B1054F
:1015C00039F427FF09C0205C3F4F4F4F5F4F04C0E5
:1015D000215C3F4F4F4F5F4F57FF05C056954795D2
:1015E00037952795319687E05695479537952795F6
:1015F0008A95D1F70BC0E0E0F0E005C0E0E0F0E054
:1016000005C0EFEFF0E020E030E0A9018E2F8795D4
:1016100088278795942F9F77679566276795E69526
:10162000E22EA92FA82BFE2FF62B622F732F8A2FC5
:101630009F2FCDB7DEB7E6E00C942F0CDC01FB0149
:101640002C9111963C91119712968C911297482FDC
:101650004F7750E0982F991F9927991F13966C91F7
:101660001397862F880F892B90E0661F6627661FC9
:101670006183009739F5211531054105510511F4B4
:1016800082E029C082E89FEF9383828367E0220F84
:10169000331F441F551F6A95D1F783E0808309C02B
:1016A000220F331F441F551F82819381019793831B
:1016B0008283203080E0380780E0480780E45807C4
:1016C00078F320C08F3F910579F42115310541054C
:1016D000510519F484E08083089544FF03C081E03C
:1016E000808310C010820EC08F57904093838283F6
:1016F00083E0808387E0220F331F441F551F8A95A4
:10170000D1F7506424833583468357830895FC01C1
:10171000DB019081923008F449C08C91823008F44A
:1017200045C0943051F461818430B1F511962C910B
:10173000119730E0261B310941C0843021F09230EE
:1017400041F48230B1F111968C9111978823A1F167
:101750002DC06181823001F111968C91119768172B
:10176000D9F42281338112968D919C91139782171F
:10177000930794F028173907BCF0248135814681FE
:10178000578114968D919D910D90BC91A02D82173B
:101790009307A407B50718F4662341F00DC0281776
:1017A00039074A075B0728F4662331F021E030E06F
:1017B00005C020E030E002C02FEF3FEFC9010895DF
:1017C00097FB092E07260AD077FD04D00CD006D04F
:1017D00000201AF4709561957F4F0895F6F7909563
:1017E00081959F4F0895AA1BBB1B51E107C0AA1FFB
:1017F000BB1FA617B70710F0A61BB70B881F991FB2
:101800005A95A9F780959095BC01CD0108952F9226
:101810003F924F925F926F927F928F929F92AF9280
:10182000BF92CF92DF92EF92FF920F931F93CF93CD
:10183000DF93CDB7DEB7CA1BDB0B0FB6F894DEBF64
:101840000FBECDBF09942A88398848885F846E848A
:101850007D848C849B84AA84B984C884DF80EE80D4
:10186000FD800C811B81AA81B981CE0FD11D0FB6DD
:10187000F894DEBF0FBECDBFED010895FC018827AF
:101880009927E89421912032E9F3293010F02E3085
:10189000C8F32B3241F02D3239F4689404C00E9411
:1018A0006C0C820F911D219120532A30C0F31EF43D
:1018B000909581959F4F0895DC0101C06D93415033
:1018C0005040E0F70895FC0101900020E9F7809571
:1018D00090958E0F9F1F08957AE0979F902D879F78
:0C18E000802D910D11240895F894FFCF85
:1018EC0057454C434F4D4520544F2041565220579D
:1018FC004F524C440A0000000000000000000001A0
:10190C000202030303030404040404040404050591
:10191C000505050505050505050505050505060669
:10192C00060606060606060606060606060606064B
:10193C000606060606060606060606060606070739
:10194C00070707070707070707070707070707071B
:10195C00070707070707070707070707070707070B
:10196C0007070707070707070707070707070707FB
:10197C0007070707070707070707070707070808E9
:10198C0008080808080808080808080808080808CB
:10199C0008080808080808080808080808080808BB
:1019AC0008080808080808080808080808080808AB
:1019BC00080808080808080808080808080808089B
:1019CC00080808080808080808080808080808088B
:1019DC00080808080808080808080808080808087B
:1019EC00080808080808080808080808080808086B
:0E19FC0008080808080808080808080808086D
:00000001FF
